{
  "abi": [
    {
      "inputs": [],
      "stateMutability": "nonpayable",
      "type": "constructor"
    },
    {
      "inputs": [],
      "name": "AlreadyClaimed",
      "type": "error"
    },
    {
      "inputs": [],
      "name": "MaxSupplyReached",
      "type": "error"
    },
    {
      "anonymous": false,
      "inputs": [
        {
          "indexed": true,
          "internalType": "address",
          "name": "owner",
          "type": "address"
        },
        {
          "indexed": true,
          "internalType": "address",
          "name": "spender",
          "type": "address"
        },
        {
          "indexed": false,
          "internalType": "uint256",
          "name": "amount",
          "type": "uint256"
        }
      ],
      "name": "Approval",
      "type": "event"
    },
    {
      "anonymous": false,
      "inputs": [
        {
          "indexed": true,
          "internalType": "address",
          "name": "from",
          "type": "address"
        },
        {
          "indexed": true,
          "internalType": "address",
          "name": "to",
          "type": "address"
        },
        {
          "indexed": false,
          "internalType": "uint256",
          "name": "amount",
          "type": "uint256"
        }
      ],
      "name": "Transfer",
      "type": "event"
    },
    {
      "inputs": [],
      "name": "DOMAIN_SEPARATOR",
      "outputs": [
        {
          "internalType": "bytes32",
          "name": "",
          "type": "bytes32"
        }
      ],
      "stateMutability": "view",
      "type": "function"
    },
    {
      "inputs": [
        {
          "internalType": "address",
          "name": "",
          "type": "address"
        },
        {
          "internalType": "address",
          "name": "",
          "type": "address"
        }
      ],
      "name": "allowance",
      "outputs": [
        {
          "internalType": "uint256",
          "name": "",
          "type": "uint256"
        }
      ],
      "stateMutability": "view",
      "type": "function"
    },
    {
      "inputs": [
        {
          "internalType": "address",
          "name": "spender",
          "type": "address"
        },
        {
          "internalType": "uint256",
          "name": "amount",
          "type": "uint256"
        }
      ],
      "name": "approve",
      "outputs": [
        {
          "internalType": "bool",
          "name": "",
          "type": "bool"
        }
      ],
      "stateMutability": "nonpayable",
      "type": "function"
    },
    {
      "inputs": [
        {
          "internalType": "address",
          "name": "",
          "type": "address"
        }
      ],
      "name": "balanceOf",
      "outputs": [
        {
          "internalType": "uint256",
          "name": "",
          "type": "uint256"
        }
      ],
      "stateMutability": "view",
      "type": "function"
    },
    {
      "inputs": [],
      "name": "claim",
      "outputs": [],
      "stateMutability": "nonpayable",
      "type": "function"
    },
    {
      "inputs": [],
      "name": "decimals",
      "outputs": [
        {
          "internalType": "uint8",
          "name": "",
          "type": "uint8"
        }
      ],
      "stateMutability": "view",
      "type": "function"
    },
    {
      "inputs": [],
      "name": "name",
      "outputs": [
        {
          "internalType": "string",
          "name": "",
          "type": "string"
        }
      ],
      "stateMutability": "view",
      "type": "function"
    },
    {
      "inputs": [
        {
          "internalType": "address",
          "name": "",
          "type": "address"
        }
      ],
      "name": "nonces",
      "outputs": [
        {
          "internalType": "uint256",
          "name": "",
          "type": "uint256"
        }
      ],
      "stateMutability": "view",
      "type": "function"
    },
    {
      "inputs": [
        {
          "internalType": "address",
          "name": "owner",
          "type": "address"
        },
        {
          "internalType": "address",
          "name": "spender",
          "type": "address"
        },
        {
          "internalType": "uint256",
          "name": "value",
          "type": "uint256"
        },
        {
          "internalType": "uint256",
          "name": "deadline",
          "type": "uint256"
        },
        {
          "internalType": "uint8",
          "name": "v",
          "type": "uint8"
        },
        {
          "internalType": "bytes32",
          "name": "r",
          "type": "bytes32"
        },
        {
          "internalType": "bytes32",
          "name": "s",
          "type": "bytes32"
        }
      ],
      "name": "permit",
      "outputs": [],
      "stateMutability": "nonpayable",
      "type": "function"
    },
    {
      "inputs": [],
      "name": "symbol",
      "outputs": [
        {
          "internalType": "string",
          "name": "",
          "type": "string"
        }
      ],
      "stateMutability": "view",
      "type": "function"
    },
    {
      "inputs": [
        {
          "internalType": "address",
          "name": "house",
          "type": "address"
        }
      ],
      "name": "tempHouseMint",
      "outputs": [],
      "stateMutability": "nonpayable",
      "type": "function"
    },
    {
      "inputs": [],
      "name": "totalSupply",
      "outputs": [
        {
          "internalType": "uint256",
          "name": "",
          "type": "uint256"
        }
      ],
      "stateMutability": "view",
      "type": "function"
    },
    {
      "inputs": [
        {
          "internalType": "address",
          "name": "to",
          "type": "address"
        },
        {
          "internalType": "uint256",
          "name": "amount",
          "type": "uint256"
        }
      ],
      "name": "transfer",
      "outputs": [
        {
          "internalType": "bool",
          "name": "",
          "type": "bool"
        }
      ],
      "stateMutability": "nonpayable",
      "type": "function"
    },
    {
      "inputs": [
        {
          "internalType": "address",
          "name": "from",
          "type": "address"
        },
        {
          "internalType": "address",
          "name": "to",
          "type": "address"
        },
        {
          "internalType": "uint256",
          "name": "amount",
          "type": "uint256"
        }
      ],
      "name": "transferFrom",
      "outputs": [
        {
          "internalType": "bool",
          "name": "",
          "type": "bool"
        }
      ],
      "stateMutability": "nonpayable",
      "type": "function"
    }
  ],
  "bytecode": {
    "object": "0x60e06040523480156200001157600080fd5b50604051806040016040528060048152602001630436869760e41b815250604051806040016040528060048152602001630434849560e41b815250600082600090816200005f9190620001d2565b5060016200006e8382620001d2565b5060ff81166080524660a0526200008462000091565b60c052506200031c915050565b60007f8b73c3c69bb8fe3d512ecc4cf759cc79239f7b179b0ffacaa9a75d522b39400f6000604051620000c591906200029e565b6040805191829003822060208301939093528101919091527fc89efdaa54c0f20c7adf612882df0950f5a951637e0307cdcb4c672f298b8bc660608201524660808201523060a082015260c00160405160208183030381529060405280519060200120905090565b634e487b7160e01b600052604160045260246000fd5b600181811c908216806200015857607f821691505b6020821081036200017957634e487b7160e01b600052602260045260246000fd5b50919050565b601f821115620001cd57600081815260208120601f850160051c81016020861015620001a85750805b601f850160051c820191505b81811015620001c957828155600101620001b4565b5050505b505050565b81516001600160401b03811115620001ee57620001ee6200012d565b6200020681620001ff845462000143565b846200017f565b602080601f8311600181146200023e5760008415620002255750858301515b600019600386901b1c1916600185901b178555620001c9565b600085815260208120601f198616915b828110156200026f578886015182559484019460019091019084016200024e565b50858210156200028e5787850151600019600388901b60f8161c191681555b5050505050600190811b01905550565b6000808354620002ae8162000143565b60018281168015620002c95760018114620002df5762000310565b60ff198416875282151583028701945062000310565b8760005260208060002060005b85811015620003075781548a820152908401908201620002ec565b50505082870194505b50929695505050505050565b60805160a05160c051610bdd6200034c600039600061048701526000610452015260006101740152610bdd6000f3fe608060405234801561001057600080fd5b50600436106100ea5760003560e01c80634e71d92d1161008c57806395d89b411161006657806395d89b41146101f8578063a9059cbb14610200578063d505accf14610213578063dd62ed3e1461022657600080fd5b80634e71d92d146101b057806370a08231146101b85780637ecebe00146101d857600080fd5b806323b872dd116100c857806323b872dd146101475780632a6036061461015a578063313ce5671461016f5780633644e515146101a857600080fd5b806306fdde03146100ef578063095ea7b31461010d57806318160ddd14610130575b600080fd5b6100f7610251565b60405161010491906108fa565b60405180910390f35b61012061011b366004610964565b6102df565b6040519015158152602001610104565b61013960025481565b604051908152602001610104565b61012061015536600461098e565b61034c565b61016d6101683660046109ca565b61043e565b005b6101967f000000000000000000000000000000000000000000000000000000000000000081565b60405160ff9091168152602001610104565b61013961044e565b61016d6104a9565b6101396101c63660046109ca565b60036020526000908152604090205481565b6101396101e63660046109ca565b60056020526000908152604090205481565b6100f7610527565b61012061020e366004610964565b610534565b61016d6102213660046109ec565b6105ac565b610139610234366004610a5f565b600460209081526000928352604080842090915290825290205481565b6000805461025e90610a92565b80601f016020809104026020016040519081016040528092919081815260200182805461028a90610a92565b80156102d75780601f106102ac576101008083540402835291602001916102d7565b820191906000526020600020905b8154815290600101906020018083116102ba57829003601f168201915b505050505081565b3360008181526004602090815260408083206001600160a01b038716808552925280832085905551919290917f8c5be1e5ebec7d5bd14f71427d1e84f3dd0314c0f7b2291e5b200ac8c7c3b9259061033a9086815260200190565b60405180910390a35060015b92915050565b6001600160a01b038316600090815260046020908152604080832033845290915281205460001981146103a8576103838382610ae2565b6001600160a01b03861660009081526004602090815260408083203384529091529020555b6001600160a01b038516600090815260036020526040812080548592906103d0908490610ae2565b90915550506001600160a01b03808516600081815260036020526040908190208054870190555190918716907fddf252ad1be2c89b69c2b068fc378daa952ba7f163c4a11628f55a4df523b3ef9061042b9087815260200190565b60405180910390a3506001949350505050565b61044b81620f42406107f5565b50565b60007f000000000000000000000000000000000000000000000000000000000000000046146104845761047f610860565b905090565b507f000000000000000000000000000000000000000000000000000000000000000090565b62989680600254106104ce5760405163d05cb60960e01b815260040160405180910390fd5b3360009081526006602052604090205460ff16156104ff57604051630c8d9eab60e31b815260040160405180910390fd5b336000818152600660205260409020805460ff19166001179055610525906103e86107f5565b565b6001805461025e90610a92565b33600090815260036020526040812080548391908390610555908490610ae2565b90915550506001600160a01b038316600081815260036020526040908190208054850190555133907fddf252ad1be2c89b69c2b068fc378daa952ba7f163c4a11628f55a4df523b3ef9061033a9086815260200190565b428410156106015760405162461bcd60e51b815260206004820152601760248201527f5045524d49545f444541444c494e455f4558504952454400000000000000000060448201526064015b60405180910390fd5b6000600161060d61044e565b6001600160a01b038a811660008181526005602090815260409182902080546001810190915582517f6e71edae12b1b97f4d1f60370fef10105fa2faae0126114a169c64845d6126c98184015280840194909452938d166060840152608083018c905260a083019390935260c08083018b90528151808403909101815260e08301909152805192019190912061190160f01b6101008301526101028201929092526101228101919091526101420160408051601f198184030181528282528051602091820120600084529083018083525260ff871690820152606081018590526080810184905260a0016020604051602081039080840390855afa158015610719573d6000803e3d6000fd5b5050604051601f1901519150506001600160a01b0381161580159061074f5750876001600160a01b0316816001600160a01b0316145b61078c5760405162461bcd60e51b815260206004820152600e60248201526d24a72b20a624a22fa9a4a3a722a960911b60448201526064016105f8565b6001600160a01b0390811660009081526004602090815260408083208a8516808552908352928190208990555188815291928a16917f8c5be1e5ebec7d5bd14f71427d1e84f3dd0314c0f7b2291e5b200ac8c7c3b925910160405180910390a350505050505050565b80600260008282546108079190610af5565b90915550506001600160a01b0382166000818152600360209081526040808320805486019055518481527fddf252ad1be2c89b69c2b068fc378daa952ba7f163c4a11628f55a4df523b3ef910160405180910390a35050565b60007f8b73c3c69bb8fe3d512ecc4cf759cc79239f7b179b0ffacaa9a75d522b39400f60006040516108929190610b08565b6040805191829003822060208301939093528101919091527fc89efdaa54c0f20c7adf612882df0950f5a951637e0307cdcb4c672f298b8bc660608201524660808201523060a082015260c00160405160208183030381529060405280519060200120905090565b600060208083528351808285015260005b818110156109275785810183015185820160400152820161090b565b506000604082860101526040601f19601f8301168501019250505092915050565b80356001600160a01b038116811461095f57600080fd5b919050565b6000806040838503121561097757600080fd5b61098083610948565b946020939093013593505050565b6000806000606084860312156109a357600080fd5b6109ac84610948565b92506109ba60208501610948565b9150604084013590509250925092565b6000602082840312156109dc57600080fd5b6109e582610948565b9392505050565b600080600080600080600060e0888a031215610a0757600080fd5b610a1088610948565b9650610a1e60208901610948565b95506040880135945060608801359350608088013560ff81168114610a4257600080fd5b9699959850939692959460a0840135945060c09093013592915050565b60008060408385031215610a7257600080fd5b610a7b83610948565b9150610a8960208401610948565b90509250929050565b600181811c90821680610aa657607f821691505b602082108103610ac657634e487b7160e01b600052602260045260246000fd5b50919050565b634e487b7160e01b600052601160045260246000fd5b8181038181111561034657610346610acc565b8082018082111561034657610346610acc565b600080835481600182811c915080831680610b2457607f831692505b60208084108203610b4357634e487b7160e01b86526022600452602486fd5b818015610b575760018114610b6c57610b99565b60ff1986168952841515850289019650610b99565b60008a81526020902060005b86811015610b915781548b820152908501908301610b78565b505084890196505b50949897505050505050505056fea2646970667358221220744129a2b5eb53c951f7b64e61c357f7b42b77f98c2030a82955058438f5164964736f6c63430008100033",
    "linkReferences": {}
  },
  "methodIdentifiers": {
    "DOMAIN_SEPARATOR()": "3644e515",
    "allowance(address,address)": "dd62ed3e",
    "approve(address,uint256)": "095ea7b3",
    "balanceOf(address)": "70a08231",
    "claim()": "4e71d92d",
    "decimals()": "313ce567",
    "name()": "06fdde03",
    "nonces(address)": "7ecebe00",
    "permit(address,address,uint256,uint256,uint8,bytes32,bytes32)": "d505accf",
    "symbol()": "95d89b41",
    "tempHouseMint(address)": "2a603606",
    "totalSupply()": "18160ddd",
    "transfer(address,uint256)": "a9059cbb",
    "transferFrom(address,address,uint256)": "23b872dd"
  },
  "id": 18
}