{
  "abi": [
    {
      "inputs": [
        {
          "internalType": "contract Chip",
          "name": "_chip",
          "type": "address"
        }
      ],
      "stateMutability": "nonpayable",
      "type": "constructor"
    },
    {
      "inputs": [],
      "name": "InvalidAction",
      "type": "error"
    },
    {
      "inputs": [
        {
          "internalType": "uint256",
          "name": "betSize",
          "type": "uint256"
        }
      ],
      "name": "InvalidBetSize",
      "type": "error"
    },
    {
      "inputs": [
        {
          "internalType": "bytes32",
          "name": "requestId",
          "type": "bytes32"
        }
      ],
      "name": "InvalidRandomnessRequest",
      "type": "error"
    },
    {
      "anonymous": false,
      "inputs": [
        {
          "indexed": true,
          "internalType": "address",
          "name": "player",
          "type": "address"
        },
        {
          "indexed": false,
          "internalType": "uint256",
          "name": "betSize",
          "type": "uint256"
        }
      ],
      "name": "BetPlaced",
      "type": "event"
    },
    {
      "anonymous": false,
      "inputs": [
        {
          "indexed": true,
          "internalType": "address",
          "name": "player",
          "type": "address"
        }
      ],
      "name": "DealerBust",
      "type": "event"
    },
    {
      "anonymous": false,
      "inputs": [
        {
          "indexed": true,
          "internalType": "address",
          "name": "player",
          "type": "address"
        },
        {
          "indexed": false,
          "internalType": "uint8",
          "name": "card",
          "type": "uint8"
        }
      ],
      "name": "DealerCardDealt",
      "type": "event"
    },
    {
      "anonymous": false,
      "inputs": [
        {
          "indexed": true,
          "internalType": "address",
          "name": "player",
          "type": "address"
        },
        {
          "indexed": false,
          "internalType": "bool",
          "name": "take",
          "type": "bool"
        }
      ],
      "name": "InsuranceTaken",
      "type": "event"
    },
    {
      "anonymous": false,
      "inputs": [
        {
          "indexed": true,
          "internalType": "address",
          "name": "player",
          "type": "address"
        },
        {
          "indexed": false,
          "internalType": "uint256",
          "name": "playerPayout",
          "type": "uint256"
        },
        {
          "indexed": false,
          "internalType": "uint256",
          "name": "dealerPayout",
          "type": "uint256"
        }
      ],
      "name": "PayoutsHandled",
      "type": "event"
    },
    {
      "anonymous": false,
      "inputs": [
        {
          "indexed": true,
          "internalType": "address",
          "name": "player",
          "type": "address"
        },
        {
          "indexed": false,
          "internalType": "enum IEVMBlackjack.Action",
          "name": "action",
          "type": "uint8"
        }
      ],
      "name": "PlayerActionTaken",
      "type": "event"
    },
    {
      "anonymous": false,
      "inputs": [
        {
          "indexed": true,
          "internalType": "address",
          "name": "player",
          "type": "address"
        }
      ],
      "name": "PlayerBust",
      "type": "event"
    },
    {
      "anonymous": false,
      "inputs": [
        {
          "indexed": true,
          "internalType": "address",
          "name": "player",
          "type": "address"
        },
        {
          "indexed": false,
          "internalType": "uint8",
          "name": "card",
          "type": "uint8"
        },
        {
          "indexed": false,
          "internalType": "uint8",
          "name": "handIndex",
          "type": "uint8"
        }
      ],
      "name": "PlayerCardDealt",
      "type": "event"
    },
    {
      "inputs": [
        {
          "internalType": "uint8",
          "name": "card",
          "type": "uint8"
        }
      ],
      "name": "convertCardToValue",
      "outputs": [
        {
          "internalType": "uint8",
          "name": "",
          "type": "uint8"
        }
      ],
      "stateMutability": "pure",
      "type": "function"
    },
    {
      "inputs": [
        {
          "internalType": "bytes32",
          "name": "_requestId",
          "type": "bytes32"
        },
        {
          "internalType": "bytes32",
          "name": "_randomness",
          "type": "bytes32"
        }
      ],
      "name": "fulfillRandomness",
      "outputs": [],
      "stateMutability": "nonpayable",
      "type": "function"
    },
    {
      "inputs": [
        {
          "internalType": "address",
          "name": "_player",
          "type": "address"
        }
      ],
      "name": "getGame",
      "outputs": [
        {
          "components": [
            {
              "internalType": "enum IEVMBlackjack.State",
              "name": "state",
              "type": "uint8"
            },
            {
              "internalType": "uint16",
              "name": "shoeCount",
              "type": "uint16"
            },
            {
              "internalType": "uint8[]",
              "name": "dealerCards",
              "type": "uint8[]"
            },
            {
              "internalType": "uint256",
              "name": "insurance",
              "type": "uint256"
            },
            {
              "internalType": "enum IEVMBlackjack.Action",
              "name": "lastAction",
              "type": "uint8"
            },
            {
              "internalType": "uint8",
              "name": "totalPlayerHands",
              "type": "uint8"
            },
            {
              "internalType": "uint8",
              "name": "activePlayerHand",
              "type": "uint8"
            },
            {
              "components": [
                {
                  "internalType": "uint8[]",
                  "name": "cards",
                  "type": "uint8[]"
                },
                {
                  "internalType": "uint256",
                  "name": "betSize",
                  "type": "uint256"
                }
              ],
              "internalType": "struct IEVMBlackjack.Hand[]",
              "name": "playerHands",
              "type": "tuple[]"
            }
          ],
          "internalType": "struct IEVMBlackjack.Game",
          "name": "game",
          "type": "tuple"
        }
      ],
      "stateMutability": "view",
      "type": "function"
    },
    {
      "inputs": [
        {
          "internalType": "uint256",
          "name": "_betSize",
          "type": "uint256"
        }
      ],
      "name": "placeBet",
      "outputs": [
        {
          "internalType": "bytes32",
          "name": "requestId",
          "type": "bytes32"
        }
      ],
      "stateMutability": "nonpayable",
      "type": "function"
    },
    {
      "inputs": [
        {
          "internalType": "address",
          "name": "_player",
          "type": "address"
        }
      ],
      "name": "requestRandomness",
      "outputs": [
        {
          "internalType": "bytes32",
          "name": "requestId",
          "type": "bytes32"
        }
      ],
      "stateMutability": "nonpayable",
      "type": "function"
    },
    {
      "inputs": [
        {
          "internalType": "enum IEVMBlackjack.Action",
          "name": "action",
          "type": "uint8"
        }
      ],
      "name": "takeAction",
      "outputs": [
        {
          "internalType": "bytes32",
          "name": "requestId",
          "type": "bytes32"
        }
      ],
      "stateMutability": "nonpayable",
      "type": "function"
    },
    {
      "inputs": [
        {
          "internalType": "bool",
          "name": "_take",
          "type": "bool"
        }
      ],
      "name": "takeInsurance",
      "outputs": [],
      "stateMutability": "nonpayable",
      "type": "function"
    }
  ],
  "bytecode": {
    "object": "0x608060405234801561001057600080fd5b506040516115d43803806115d483398101604081905261002f91610054565b600080546001600160a01b0319166001600160a01b0392909216919091179055610084565b60006020828403121561006657600080fd5b81516001600160a01b038116811461007d57600080fd5b9392505050565b611541806100936000396000f3fe608060405234801561001057600080fd5b506004361061007d5760003560e01c8063467c43641161005b578063467c4364146100e25780637bb7a70c146100f55780638d1a4b2814610108578063ead073c71461012857600080fd5b80630ffdd4e41461008257806310fe7c48146100975780631e876390146100bd575b600080fd5b61009561009036600461116a565b61013b565b005b6100aa6100a536600461118c565b610605565b6040519081526020015b60405180910390f35b6100d06100cb3660046111a5565b6107ba565b60405160ff90911681526020016100b4565b6100956100f03660046111e0565b6107f5565b6100aa6101033660046111fd565b610943565b61011b61011636600461121e565b610c79565b6040516100b4919061131a565b6100aa61013636600461121e565b610ed5565b6000828152600260205260409020546001600160a01b03168061017957604051630ff00e0160e21b8152600481018490526024015b60405180910390fd5b6001600160a01b038116600090815260016020819052604090912090815460ff1660058111156101ab576101ab611247565b146101c957604051634a7f394f60e01b815260040160405180910390fd5b80546101371961010090910461ffff1601610368577fcbf949ec1e1f377566e9b724eba8debea1cfa42fa3d5f89cc91a3685f7d4702483036102175761021282600d6000610f3b565b610258565b7f2cef5778d97683b4f64607f72e862fc0c92376e44cc61195ef72a634c0b1793e830361024b576102128260066000610f3b565b6102588260046000610f3b565b7fec08d0974e93cdef3f47cd5c5a287a626489bcf52960b0af6a2544794055c85b830361029a5761028a826000610ffb565b805460ff191660021781556102b1565b6102a5826001610ffb565b805460ff191660031781555b7fcbf949ec1e1f377566e9b724eba8debea1cfa42fa3d5f89cc91a3685f7d4702483036102ea576102e582601a6000610f3b565b61032b565b7f2cef5778d97683b4f64607f72e862fc0c92376e44cc61195ef72a634c0b1793e830361031e576102e58260136000610f3b565b61032b8260106000610f3b565b80546003908290600190610349908490610100900461ffff166113e2565b92506101000a81548161ffff021916908361ffff1602179055506105e4565b6001600382015460ff16600481111561038357610383611247565b1480156103ec57506103ec816004016000815481106103a4576103a4611404565b90600052602060002090600202016000016000815481106103c7576103c7611404565b90600052602060002090602091828204019190069054906101000a900460ff16611072565b801561042f575061042f8160040160008154811061040c5761040c611404565b90600052602060002090600202016000016001815481106103c7576103c7611404565b156104a3576104418260326000610f3b565b61044e8260336000610f3b565b8054600290829060019061046c908490610100900461ffff166113e2565b825461ffff9182166101009390930a9283029190920219909116179055508054600490829060ff19166001835b02179055506105e4565b6001600382015460ff1660048111156104be576104be611247565b0361052c576104d08260326000610f3b565b6104dd8260336000610f3b565b805460029082906001906104fb908490610100900461ffff166113e2565b825461ffff9182166101009390930a9283029190920219909116179055508054600390829060ff1916600183610499565b6002600382015460ff16600481111561054757610547611247565b036105a15761055982600f6000610f3b565b8054610100900461ffff168160016105708361141a565b825461ffff9182166101009390930a9283029190920219909116179055508054600490829060ff1916600183610499565b60038082015460ff1660048111156105bb576105bb611247565b036105e4576105cd8260196000610f3b565b8054610100900461ffff168160016104fb8361141a565b505050600090815260026020526040902080546001600160a01b0319169055565b6000678ac7230489e80000821080610625575068056bc75e2d6310000082115b15610646576040516331f97bcf60e01b815260048101839052602401610170565b6000546040516323b872dd60e01b8152336004820152306024820152604481018490526001600160a01b03909116906323b872dd906064016020604051808303816000875af115801561069d573d6000803e3d6000fd5b505050506040513d601f19601f820116820180604052508101906106c19190611438565b50336000908152600160208190526040909120805460ff1916909117808255610100900461ffff16156106fe578054610100900461ffff16610702565b6101385b815461ffff919091166101000262ffff0019909116178155604080516000818301818152606083019093529181526020808201869052600484018054600181018255908452928190208251805193946002029091019261076592849201906110af565b5060208201518160010155505061077b33610ed5565b60405184815290925033907f43e08d78302cdf9c94e1ffd293c2a3696139ee41cf3199b6f5eed9c7f6cc6090906020015b60405180910390a250919050565b6000806107c8600d8461146b565b6107d390600161148d565b9050600a8160ff16106107e95750600a92915050565b92915050565b50919050565b3360009081526001602052604090206002815460ff16600581111561081c5761081c611247565b1461083a57604051634a7f394f60e01b815260040160405180910390fd5b81156108fc57600060028260040160008154811061085a5761085a611404565b90600052602060002090600202016001015461087691906114a6565b600283018190556000546040516323b872dd60e01b8152336004820152306024820152604481018390529192506001600160a01b0316906323b872dd906064016020604051808303816000875af11580156108d5573d6000803e3d6000fd5b505050506040513d601f19601f820116820180604052508101906108f99190611438565b50505b805460ff19166003178155604051821515815233907f18eccf9842aaec4cad6cf92b6115031173de7876daf694558fdb42c503b4fc59906020015b60405180910390a25050565b3360009081526001602052604081206003815460ff16600581111561096a5761096a611247565b1461098857604051634a7f394f60e01b815260040160405180910390fd5b600183600481111561099c5761099c611247565b03610a9e57610a5b816004016000815481106109ba576109ba611404565b90600052602060002090600202016000016000815481106109dd576109dd611404565b90600052602060002090602091828204019190069054906101000a900460ff1682600401600081548110610a1357610a13611404565b9060005260206000209060020201600001600181548110610a3657610a36611404565b90600052602060002090602091828204019190069054906101000a900460ff16611089565b610a7857604051634a7f394f60e01b815260040160405180910390fd5b8054600160ff1991821681178355600383018054919290911682805b0217905550610c35565b6002836004811115610ab257610ab2611247565b03610bbd57805460ff1990811660011782556003820180549091166002179055600481018054600091908290610aea57610aea611404565b9060005260206000209060020201600101549050600282600401600081548110610b1657610b16611404565b90600052602060002090600202016001016000828254610b3691906114ba565b90915550506000546040516323b872dd60e01b8152336004820152306024820152604481018390526001600160a01b03909116906323b872dd906064016020604051808303816000875af1158015610b92573d6000803e3d6000fd5b505050506040513d601f19601f82011682018060405250810190610bb69190611438565b5050610c35565b6003836004811115610bd157610bd1611247565b03610bfb578054600190829060ff1916828002179055506003818101805460ff1916600183610a94565b6004836004811115610c0f57610c0f611247565b03610c35578054600460ff19918216811783556003830180549192909116600183610a94565b610c3e33610ed5565b9150336001600160a01b03167f89a43b463d332c9873bedf89a4583162f32d8eb8378d016cee7b4e958170abed846040516107ac91906114d9565b604080516101008101825260008082526020820181905260609282018390528282018190526080820181905260a0820181905260c082015260e08101919091526001600160a01b03821660009081526001602052604090819020815161010081019092528054829060ff166005811115610cf557610cf5611247565b6005811115610d0657610d06611247565b81528154610100900461ffff166020808301919091526001830180546040805182850281018501825282815294019392830182828015610d8357602002820191906000526020600020906000905b825461010083900a900460ff16815260206001928301818104948501949093039092029101808411610d545790505b505050918352505060028201546020820152600382015460409091019060ff166004811115610db457610db4611247565b6004811115610dc557610dc5611247565b8152600382015460ff610100820481166020808501919091526201000090920416604080840191909152600484018054825181850281018501909352808352606090940193919290919060009084015b82821015610ec7578382906000526020600020906002020160405180604001604052908160008201805480602002602001604051908101604052809291908181526020018280548015610ea557602002820191906000526020600020906000905b825461010083900a900460ff16815260206001928301818104948501949093039092029101808411610e765790505b5050505050815260200160018201548152505081526020019060010190610e15565b505050915250909392505050565b604080516001600160a01b038316602082015242818301528151808203830181526060909101909152600090610f0a906114e7565b600081815260026020526040902080546001600160a01b0319166001600160a01b0394909416939093179092555090565b6001600160a01b0383166000908152600160205260409020600401805460ff8316908110610f6b57610f6b611404565b60009182526020808320600292909202909101805460018101825590835291819020818304018054601f9093166101000a60ff818102199094168685169182021790915560408051918252928416918101919091526001600160a01b038516917feaa929950335e0a93fd73312c8b8e473b78101e18447d04a2e959882b311d030910160405180910390a2505050565b6001600160a01b038216600081815260016020818152604080842083018054938401815584529281902081830401805460ff878116601f9095166101000a85810291021990911617905591519081527fe485a3e5970b1379a707940ba6ef4e0e9e2a05d0cecca9fa7857894a2e43a0a99101610937565b600061107f600d8361146b565b60ff161592915050565b6000611096600d8361146b565b60ff166110a4600d8561146b565b60ff16149392505050565b82805482825590600052602060002090601f016020900481019282156111455791602002820160005b8382111561111657835183826101000a81548160ff021916908360ff16021790555092602001926001016020816000010492830192600103026110d8565b80156111435782816101000a81549060ff0219169055600101602081600001049283019260010302611116565b505b50611151929150611155565b5090565b5b808211156111515760008155600101611156565b6000806040838503121561117d57600080fd5b50508035926020909101359150565b60006020828403121561119e57600080fd5b5035919050565b6000602082840312156111b757600080fd5b813560ff811681146111c857600080fd5b9392505050565b80151581146111dd57600080fd5b50565b6000602082840312156111f257600080fd5b81356111c8816111cf565b60006020828403121561120f57600080fd5b8135600581106111c857600080fd5b60006020828403121561123057600080fd5b81356001600160a01b03811681146111c857600080fd5b634e487b7160e01b600052602160045260246000fd5b600081518084526020808501945080840160005b8381101561129057815160ff1687529582019590820190600101611271565b509495945050505050565b600581106112ab576112ab611247565b9052565b600081518084526020808501808196508360051b8101915082860160005b8581101561130d5782840389528151604081518187526112ef8288018261125d565b928801519688019690965250988501989350908401906001016112cd565b5091979650505050505050565b60208152600082516006811061133257611332611247565b80602084015250602083015161134e604084018261ffff169052565b50604083015161010080606085015261136b61012085018361125d565b915060608501516080850152608085015161138960a086018261129b565b5060a085015160ff811660c08601525060c085015160ff811660e08601525060e0850151848303601f1901828601526113c283826112af565b9695505050505050565b634e487b7160e01b600052601160045260246000fd5b61ffff8281168282160390808211156113fd576113fd6113cc565b5092915050565b634e487b7160e01b600052603260045260246000fd5b600061ffff82168061142e5761142e6113cc565b6000190192915050565b60006020828403121561144a57600080fd5b81516111c8816111cf565b634e487b7160e01b600052601260045260246000fd5b600060ff83168061147e5761147e611455565b8060ff84160691505092915050565b60ff81811683821601908111156107e9576107e96113cc565b6000826114b5576114b5611455565b500490565b60008160001904831182151516156114d4576114d46113cc565b500290565b602081016107e9828461129b565b805160208083015191908110156107ef5760001960209190910360031b1b1691905056fea2646970667358221220774632ca9176a17f3e40b87e793327bb1bafa5265f01bbae0a771498c361f11764736f6c63430008100033",
    "linkReferences": {}
  },
  "methodIdentifiers": {
    "convertCardToValue(uint8)": "1e876390",
    "fulfillRandomness(bytes32,bytes32)": "0ffdd4e4",
    "getGame(address)": "8d1a4b28",
    "placeBet(uint256)": "10fe7c48",
    "requestRandomness(address)": "ead073c7",
    "takeAction(uint8)": "7bb7a70c",
    "takeInsurance(bool)": "467c4364"
  },
  "id": 19
}